:020000040800F2
:100000000000022045480108F94601080747010899
:100010000D470108134701081947010800000000B7
:100020000000000000000000000000001F47010861
:100030002D470108000000003B470108494701081F
:100040009548010895480108954801085D21000878
:100050009548010895480108954801089548010808
:1000600095480108954801089548010895480108F8
:1000700095480108954801089548010895480108E8
:1000800095480108954801089548010895480108D8
:1000900095480108954801089548010895480108C8
:1000A00095480108954801089548010895480108B8
:1000B00095480108954801089548010895480108A8
:1000C0009548010895480108954801089548010898
:1000D0009548010895480108954801089548010888
:1000E000954801089921000895480108954801089C
:1000F0009548010895480108954801089548010868
:100100009548010895480108954801089548010857
:100110009548010895480108954801089548010847
:100120009548010895480108954801089548010837
:100130009548010895480108954801089548010827
:100140009548010895480108954801089548010817
:100150009548010895480108954801089548010807
:1001600095480108954801089548010895480108F7
:1001700095480108954801089548010800000000CD
:080180009548010895480108AB
:1001880010B5054C237833B9044B13B10448AFF3C9
:1001980000800123237010BD6008002000000000CB
:1001A8007469010808B5034B1BB103490348AFF351
:1001B800008008BD00000000640800207469010880
:1001C800844641EA000313F003036DD1403A41D35A
:1001D80051F8043B40F8043B51F8043B40F8043B19
:1001E80051F8043B40F8043B51F8043B40F8043B09
:1001F80051F8043B40F8043B51F8043B40F8043BF9
:1002080051F8043B40F8043B51F8043B40F8043BE8
:1002180051F8043B40F8043B51F8043B40F8043BD8
:1002280051F8043B40F8043B51F8043B40F8043BC8
:1002380051F8043B40F8043B51F8043B40F8043BB8
:1002480051F8043B40F8043B51F8043B40F8043BA8
:10025800403ABDD2303211D351F8043B40F8043B48
:1002680051F8043B40F8043B51F8043B40F8043B88
:1002780051F8043B40F8043B103AEDD20C3205D358
:1002880051F8043B40F8043B043AF9D2043208D050
:10029800D2071CBF11F8013B00F8013B01D30B88C2
:1002A80003806046704700BF082A13D38B078DD0A0
:1002B80010F003038AD0C3F10403D21ADB071CBF72
:1002C80011F8013B00F8013B80D331F8023B20F8DC
:1002D800023B7BE7043AD9D3013A11F8013B00F815
:1002E800013BF9D20B7803704B7843708B7883709D
:1002F8006046704781F0004102E000BF83F0004390
:1003080030B54FEA41044FEA430594EA050F08BFA8
:1003180090EA020F1FBF54EA000C55EA020C7FEA6C
:10032800645C7FEA655C00F0E2804FEA5454D4EBE9
:100338005555B8BF6D420CDD2C4480EA020281EAB3
:10034800030382EA000083EA010180EA020281EAEB
:100358000303362D88BF30BD11F0004F4FEA01313D
:100368004FF4801C4CEA113102D0404261EB41014C
:1003780013F0004F4FEA03334CEA133302D05242D2
:1003880063EB430394EA050F00F0A780A4F101048E
:10039800D5F1200E0DDB02FA0EFC22FA05F28018C8
:1003A80041F1000103FA0EF2801843FA05F35941AE
:1003B8000EE0A5F120050EF1200E012A03FA0EFC2D
:1003C80028BF4CF0020C43FA05F3C01851EBE37157
:1003D80001F0004507D54FF0000EDCF1000C7EEB74
:1003E80000006EEB0101B1F5801F1BD3B1F5001FB2
:1003F8000CD349085FEA30004FEA3C0C04F10104D1
:100408004FEA445212F5800F80F09A80BCF1004FF9
:1004180008BF5FEA500C50F1000041EB045141EA7B
:10042800050130BD5FEA4C0C404141EB010111F47C
:10043800801FA4F10104E9D191F0000F04BF014627
:100448000020B1FA81F308BF2033A3F10B03B3F105
:1004580020020CDA0C3208DD02F1140CC2F10C0295
:1004680001FA0CF021FA02F10CE002F11402D8BFF3
:10047800C2F1200C01FA02F120FA0CFCDCBF41EABF
:100488000C019040E41AA2BF01EB0451294330BD8E
:100498006FEA04041F3C1CDA0C340EDC04F114046B
:1004A800C4F1200220FA04F001FA02F340EA030042
:1004B80021FA04F345EA030130BDC4F10C04C4F188
:1004C800200220FA02F001FA04F340EA0300294668
:1004D80030BD21FA04F0294630BD94F0000F83F4B2
:1004E800801306BF81F480110134013D4EE77FEA95
:1004F800645C18BF7FEA655C29D094EA050F08BFE1
:1005080090EA020F05D054EA000C04BF19461046C1
:1005180030BD91EA030F1EBF0021002030BD5FEA05
:10052800545C05D14000494128BF41F0004130BD2D
:1005380014F580043CBF01F5801130BD01F0004581
:1005480045F0FE4141F470014FF0000030BD7FEAF4
:10055800645C1ABF194610467FEA655C1CBF0B46EF
:10056800024650EA013406BF52EA033591EA030F06
:1005780041F4002130BD00BF90F0000F04BF0021FE
:10058800704730B54FF4806404F132044FF0000531
:100598004FF0000150E700BF90F0000F04BF0021AA
:1005A800704730B54FF4806404F1320410F0004510
:1005B80048BF40424FF000013EE700BF42004FEA0B
:1005C800E2014FEA31014FEA02701FBF12F07F4388
:1005D80093F07F4F81F06051704732F07F4208BF3F
:1005E800704793F07F4F04BF41F40021704730B546
:1005F8004FF4607401F0004521F000411CE700BF92
:1006080050EA010208BF704730B54FF000050AE014
:1006180050EA010208BF704730B511F0004502D515
:10062800404261EB41014FF4806404F132045FEA17
:10063800915C3FF4D8AE4FF003025FEADC0C18BFC0
:1006480003325FEADC0C18BF033202EBDC02C2F1B2
:10065800200300FA03FC20FA02F001FA03FE40EA44
:100668000E0021FA02F11444BDE600BF70B54FF048
:10067800FF0C4CF4E06C1CEA11541DBF1CEA135526
:1006880094EA0C0F95EA0C0F00F0DEF82C4481EA8E
:10069800030621EA4C5123EA4C5350EA013518BFAE
:1006A80052EA033541F4801143F4801338D0A0FB9B
:1006B80002CE4FF00005E1FB02E506F00042E0FB48
:1006C80003E54FF00006E1FB03569CF0000F18BF4E
:1006D8004EF0010EA4F1FF04B6F5007F64F54074F6
:1006E80004D25FEA4E0E6D4146EB060642EAC62189
:1006F80041EA55514FEAC52040EA5E504FEACE2EF6
:10070800B4F1FD0C88BFBCF5E06F1ED8BEF1004FF8
:1007180008BF5FEA500E50F1000041EB045170BD74
:1007280006F0004646EA010140EA020081EA0301B8
:10073800B4EB5C04C2BFD4EB0C0541EA045170BDB4
:1007480041F480114FF0000E013C00F3AB8014F12E
:10075800360FDEBF002001F0004170BDC4F1000477
:10076800203C35DA0C341BDC04F11404C4F12005F8
:1007780000FA05F320FA04F001FA05F240EA020053
:1007880001F0004221F0004110EBD37021FA04F689
:1007980042EB06015EEA430E08BF20EAD37070BD43
:1007A800C4F10C04C4F1200500FA04F320FA05F0A2
:1007B80001FA04F240EA020001F0004110EBD370A4
:1007C80041F100015EEA430E08BF20EAD37070BD14
:1007D800C4F1200500FA05F24EEA020E20FA04F3ED
:1007E80001FA05F243EA020321FA04F001F000419C
:1007F80021FA04F220EA020000EBD3705EEA430E0D
:1008080008BF20EAD37070BD94F0000F0FD101F03B
:100818000046400041EB010111F4801F08BF013C74
:10082800F7D041EA060195F0000F18BF704703F0B2
:100838000046520043EB030313F4801F08BF013D39
:10084800F7D043EA0603704794EA0C0F0CEA1355F5
:1008580018BF95EA0C0F0CD050EA410618BF52EAAF
:100868004306D1D181EA030101F000414FF00000B5
:1008780070BD50EA410606BF1046194652EA4306C3
:1008880019D094EA0C0F02D150EA013613D195EA37
:100898000C0F05D152EA03361CBF104619460AD17F
:1008A80081EA030101F0004141F0FE4141F4700189
:1008B8004FF0000070BD41F0FE4141F4780170BD79
:1008C80070B54FF0FF0C4CF4E06C1CEA11541DBFDE
:1008D8001CEA135594EA0C0F95EA0C0F00F0A7F8E0
:1008E800A4EB050481EA030E52EA03354FEA01310D
:1008F80000F088804FEA03334FF0805545EA131320
:1009080043EA12634FEA022245EA111545EA1065E7
:100918004FEA00260EF000419D4208BF964244F17E
:10092800FD0404F5407402D25B084FEA3202B61A9D
:1009380065EB03055B084FEA32024FF480104FF471
:10094800002CB6EB020E75EB030E22BFB61A7546E5
:1009580040EA0C005B084FEA3202B6EB020E75EB78
:10096800030E22BFB61A754640EA5C005B084FEAE0
:100978003202B6EB020E75EB030E22BFB61A7546AD
:1009880040EA9C005B084FEA3202B6EB020E75EBB8
:10099800030E22BFB61A754640EADC0055EA060E79
:1009A80018D04FEA051545EA16754FEA06164FEABC
:1009B800C30343EA52734FEAC2025FEA1C1CC0D168
:1009C80011F4801F0BD141EA00014FF000004FF0F5
:1009D800004CB6E711F4801F04BF01430020B4F1B6
:1009E800FD0C88BFBCF5E06F3FF6AFAEB5EB030C6E
:1009F80004BFB6EB020C5FEA500C50F1000041EB6B
:100A0800045170BD0EF0004E4EEA113114EB5C0437
:100A1800C2BFD4EB0C0541EA045170BD41F480110A
:100A28004FF0000E013C90E645EA060E8DE60CEA12
:100A3800135594EA0C0F08BF95EA0C0F3FF43BAF2F
:100A480094EA0C0F0AD150EA01347FF434AF95EAE6
:100A58000C0F7FF425AF104619462CE795EA0C0FCA
:100A680006D152EA03353FF4FDAE1046194622E797
:100A780050EA410618BF52EA43067FF4C5AE50EA71
:100A880041047FF40DAF52EA43057FF4EBAE12E761
:100A98004FF0FF3C06E000BF4FF0010C02E000BF42
:100AA8004FF0010C4DF804CD4FEA410C7FEA6C5C25
:100AB8004FEA430C18BF7FEA6C5C1BD001B050EAC8
:100AC800410C0CBF52EA430C91EA030F02BF90EAB3
:100AD800020F0020704710F1000F91EA030F58BF72
:100AE800994208BF90422CBFD8176FEAE37040F0D4
:100AF800010070474FEA410C7FEA6C5C02D150EA72
:100B0800013C07D14FEA430C7FEA6C5CD6D152EA2C
:100B1800033CD3D05DF8040B704700BF84461046F1
:100B280062468C461946634600E000BF01B5FFF7F0
:100B3800B7FF002848BF10F1000F01BD4DF808EDC0
:100B4800FFF7F4FF0CBF012000205DF808FB00BF91
:100B58004DF808EDFFF7EAFF34BF012000205DF8EB
:100B680008FB00BF4DF808EDFFF7E0FF94BF012038
:100B780000205DF808FB00BF4DF808EDFFF7CEFF39
:100B880094BF012000205DF808FB00BF4DF808ED78
:100B9800FFF7C4FF34BF012000205DF808FB00BF49
:100BA8004FEA410C7FEA6C5C02D150EA013C0AD161
:100BB8004FEA430C7FEA6C5C02D152EA033C02D153
:100BC8004FF0000070474FF0010070474FEA4102B4
:100BD80012F5001215D211D56FF47873B3EB625287
:100BE80012D94FEAC12343F0004343EA505311F0AE
:100BF800004F23FA02F018BF404270474FF0000040
:100C0800704750EA013005D111F0004008BF6FF07D
:100C1800004070474FF00000704700BF4FEA4102A4
:100C2800B2F1E04324BFB3F5001CDCF1FE5C0DD942
:100C380001F0004C4FEAC0024CEA5070B2F1004F8C
:100C480040EB830008BF20F00100704711F0804F8F
:100C580021D113F13872BCBF01F00040704741F454
:100C680080114FEA5252C2F11802C2F1200C10FA58
:100C78000CF320FA02F018BF40F001004FEAC1233C
:100C88004FEAD32303FA0CFC40EA0C0023FA02F3E0
:100C98004FEA4303CCE77FEA625307D150EA0133B6
:100CA8001EBF4FF0FE4040F44000704701F0004086
:100CB80040F0FE4040F40000704700BF53B94AB905
:100CC800002908BF00281CBF4FF0FF314FF0FF304C
:100CD80000F074B9ADF1080C6DE904CE00F006F827
:100CE800DDF804E0DDE9022304B070472DE9F047A0
:100CF800089E04468846002B40F085808A421546A7
:100D080048D9B2FA82F24AB1C2F1200701FA02F3D5
:100D180020FA07F7954047EA030894404FEA154E32
:100D2800230CB8FBFEF71FFA85FC0EFB178843EA75
:100D3800084307FB0CF1994209D9EB1807F1FF307A
:100D480080F0E380994240F2E080023F2B445B1A36
:100D5800A4B2B3FBFEF00EFB103344EA034400FBDD
:100D68000CFCA44509D92C1900F1FF3380F0CB8085
:100D7800A44540F2C88002382C4440EA0740A4EB5E
:100D88000C0400271EB1D4400023C6E900433946AD
:100D9800BDE8F087002A53D0B2FA82F2002A40F068
:100DA800B680491B4FEA154E1FFA85F80127B1FB9B
:100DB800FEFC230C0EFB1C1143EA014308FB0CF15B
:100DC800994207D9EB180CF1FF3002D2994200F290
:100DD800EC808446591AA3B2B1FBFEF00EFB101446
:100DE80043EA044408FB00F8A04507D92C1900F190
:100DF800FF3302D2A04500F2DC801846A4EB0804B9
:100E080040EA0C40BEE78B4208D9002E78D0002774
:100E1800C6E9000138463946BDE8F087B3FA83F7DA
:100E28007FB98B4202D3824200F2BD80841A61EB03
:100E3800030301209846002EA9D0C6E90048A6E77A
:100E4800FFDEC7F12005BB4022FA05FC4CEA030C83
:100E580001FA07F420FA05F821FA05F34FEA1C4EC7
:100E680048EA0404B3FBFEF9210C0EFB19331FFA00
:100E78008CF841EA034309FB08FA9A4502FA07F29B
:100E880000FA07F10BD91CEB030309F1FF3080F0DE
:100E980088809A4540F28580A9F102096344A3EB52
:100EA8000A03A4B2B3FBFEF00EFB103344EA03447A
:100EB80000FB08F8A04508D91CEB040400F1FF3337
:100EC8006BD2A04569D90238644440EA0940A4EBD2
:100ED8000804A0FB02894C45C6464B4654D351D062
:100EE800002E69D0B1EB0E0264EB030404FA05F599
:100EF80022FA07F3FC401D43C6E90054002746E7E1
:100F08003746304643E7184637E707461FE7C2F13A
:100F1800200320FA03F7954001FA02F021FA03F3BF
:100F28004FEA154E3843010CB3FBFEF71FFA85F85C
:100F38000EFB173341EA034107FB08F38B4204FA1F
:100F480002F407D9691807F1FF3C28D28B4226D949
:100F5800023F2944CB1A81B2B3FBFEF00EFB1033DB
:100F680041EA034100FB08F38B4207D9691800F1F5
:100F7800FF3C10D28B420ED902382944C91A40EAE4
:100F8800074714E74145ABD2B8EB020E69EB0C02F8
:100F980001381346A4E76046F0E7184695E7674628
:100FA800D8E781467BE7384645E7ACF1020C2B448D
:100FB80010E702382C4421E73746E8E6704700BFBF
:100FC80080B489B000AF7860396000237B6100236A
:100FD8003B610023BB610023FB616BE10122FB69DC
:100FE80002FA03F37B613B681B687A6913403B6133
:100FF8003A697B699A4240F05A813B685B68012BE9
:101008000BD03B685B68022B07D03B685B68112BF1
:1010180003D03B685B68122B30D17B689B68BB614F
:10102800FB695B00032202FA03F3DB43BA6913404E
:10103800BB613B68DA68FB695B0002FA03F3BA69D3
:101048001343BB617B68BA699A607B685B68BB6164
:101058000122FB6902FA03F3DB43BA691340BB615F
:101068003B685B681B0903F00102FB6902FA03F3A2
:10107800BA691343BB617B68BA695A607B68DB68ED
:10108800BB61FB695B00032202FA03F3DB43BA6925
:101098001340BB613B689A68FB695B0002FA03F383
:1010A800BA691343BB617B68BA69DA603B685B68FD
:1010B800022B03D03B685B68122B23D1FB69DA084B
:1010C8007B68083253F82230BB61FB6903F00703E1
:1010D8009B000F2202FA03F3DB43BA691340BB619A
:1010E8003B681A69FB6903F007039B0002FA03F3E4
:1010F800BA691343BB61FB69DA087B680832B969CE
:1011080043F822107B681B68BB61FB695B00032204
:1011180002FA03F3DB43BA691340BB613B685B68BF
:1011280003F00302FB695B0002FA03F3BA69134395
:10113800BB617B68BA691A603B685B6803F08053DF
:10114800002B00F0B4800023FB605F4B5B6C5E4AB1
:1011580043F4804353645C4B5B6C03F48043FB6053
:10116800FB685A4AFB699B08023352F82330BB617B
:10117800FB6903F003039B000F2202FA03F3DB432E
:10118800BA691340BB617B68514A93422BD07B6894
:10119800504A934225D07B684F4A93421FD07B68C0
:1011A8004E4A934219D07B684D4A934213D07B68CC
:1011B8004C4A93420DD07B684B4A934207D07B68D8
:1011C8004A4A934201D107230EE008230CE0062384
:1011D8000AE0052308E0042306E0032304E00223D1
:1011E80002E0012300E00023FA6902F00302920002
:1011F8009340BA691343BB613449FB699B080233C6
:10120800BA6941F823203A4B1B68BB613B69DB4351
:10121800BA691340BB613B685B6803F48033002BF9
:1012280003D0BA693B691343BB61314ABB69136098
:101238002F4B5B68BB613B69DB43BA691340BB61F9
:101248003B685B6803F40033002B03D0BA693B6941
:101258001343BB61264ABB695360254B9B68BB613E
:101268003B69DB43BA691340BB613B685B6803F4C5
:101278008013002B03D0BA693B691343BB611C4A36
:10128800BB6993601A4BDB68BB613B69DB43BA6996
:101298001340BB613B685B6803F40013002B03D069
:1012A800BA693B691343BB61114ABB69D360FB69E7
:1012B8000133FB61FB690F2B7FF690AE00BF24372B
:1012C800BD465DF8047B7047003802400038014095
:1012D800000002400004024000080240000C0240E6
:1012E800001002400014024000180240001C024096
:1012F800003C014080B483B000AF78600B467B802F
:1013080013467B707B78002B03D07A887B689A61C0
:1013180003E07B881A047B689A6100BF0C37BD46DE
:101328005DF8047B7047000080B485B000AF78603A
:101338007B6803F00703FB600C4BDB68BB60BA6893
:101348004FF6FF031340BB60FB681A02BB681343E8
:1013580043F0BF6343F40033BB60044ABB68D36007
:1013680000BF1437BD465DF8047B704700ED00E010
:1013780080B400AF044BDB681B0A03F00703184670
:10138800BD465DF8047B704700ED00E080B483B093
:1013980000AF03463960FB7197F90730002B0ADB71
:1013A8003B68DAB20C4997F907301201D2B20B4404
:1013B80083F800230AE03B68DAB20849FB7903F0B6
:1013C8000F03043B1201D2B20B441A7600BF0C374C
:1013D800BD465DF8047B704700E100E000ED00E0E9
:1013E80080B489B000AFF860B9607A60FB6803F038
:1013F8000703FB61FB69C3F10703042B28BF042320
:10140800BB61FB690433062B02D9FB69033B00E08F
:1014180000237B614FF0FF32BB6902FA03F3DA4322
:10142800BB681A407B699A404FF0FF317B6901FA2B
:1014380003F3D9437B680B40134318462437BD4652
:101448005DF8047B7047000080B582B000AF78601B
:101458007B68013BB3F1807F01D301230FE00A4A87
:101468007B68013B53600F214FF0FF30FFF78EFF81
:10147800054B00229A60044B07221A600023184685
:101488000837BD4680BD00BF10E000E080B582B0DF
:1014980000AF78607868FFF747FF00BF0837BD46A0
:1014A80080BD80B586B000AF0346B9607A60FB7333
:1014B80000237B61FFF75CFF78617A68B968786917
:1014C800FFF78EFF024697F90F3011461846FFF7CF
:1014D8005DFF00BF1837BD4680BD80B582B000AF44
:1014E80078607868FFF7B0FF034618460837BD46AE
:1014F80080BD80B582B000AF78607B68002B01D1D9
:1015080001231CE07B685B79DBB2002B05D17B688B
:1015180000221A71786813F021F97B6802225A7147
:101528007B681B681A687B681B6842F004021A60B3
:101538007B6801225A717B6800229A600023184652
:101548000837BD4680BD80B582B000AF78607B6843
:10155800002B01D101231CE07B681B681A687B689B
:101568001B6822F00C021A607B681B685A687B684B
:101578001B6822F060025A60786813F011F97B68E2
:1015880000225A717B6800229A607B6800221A71D7
:10159800002318460837BD4680BD80B584B000AF2B
:1015A800786039600023FB737B681B79012B01D1BC
:1015B80002233DE07B6801221A717B685B79DBB20C
:1015C800012B2CD17B6802225A7100F095F8B86083
:1015D80011E000F091F80246BB68D31A022B0AD931
:1015E8007B6801225A717B6802229A607B6800221C
:1015F8001A7101231CE07B681B685B6803F0010318
:10160800012BE6D17B681B689A687B68DA607B6887
:10161800DA683B681A607B6801225A7104E07B68CB
:1016280004229A600123FB737B6800221A71FB7BFA
:1016380018461037BD4680BD80B500AF0B4B1B6800
:101648000A4A43F400731360084B1B68074A43F4C3
:10165800806313600320FFF719FF0F2000F008F8DC
:1016680013F074F80023184680BD00BF003C024008
:1016780080B582B000AF7860124B1A68124B1B78A5
:1016880019464FF47A73B3FBF1F3B2FBF3F3184640
:10169800FFF723FF0346002B01D001230EE07B68F0
:1016A8000F2B0AD8002279684FF0FF30FFF7F9FEB8
:1016B800064A7B681360002300E0012318460837B8
:1016C800BD4680BD18000020040000200000002056
:1016D80080B400AF064B1B781A46064B1B681344B0
:1016E800044A136000BFBD465DF8047B704700BF25
:1016F80004000020D408002080B400AF034B1B680E
:101708001846BD465DF8047B704700BFD40800202A
:1017180080B584B000AF7860FFF7EEFFB8607B68F3
:10172800FB60FB68B3F1FF3F05D0094B1B781A46F5
:10173800FB681344FB6000BFFFF7DEFF0246BB688F
:10174800D31AFA689A42F7D800BF1037BD4680BD51
:101758000400002080B400AF034B1B681B0C184624
:10176800BD465DF8047B7047002004E080B586B074
:1017780000AF78607B68002B01D101235BE27B68B6
:101788001B6803F00103002B75D0A34B9B6803F083
:101798000C03042B0CD0A04B9B6803F00C03082B04
:1017A80012D19D4B5B6803F48003B3F5800F0BD116
:1017B800994B1B6803F40033002B5BD07B685B6894
:1017C800002B57D1012336E27B685B68B3F5803F75
:1017D80006D1914B1B68904A43F4803313601DE097
:1017E8007B685B68B3F5A02F0CD18B4B1B688A4ACA
:1017F80043F480231360884B1B68874A43F4803383
:1018080013600BE0844B1B68834A23F48033136016
:10181800814B1B68804A23F4802313607B685B68D4
:10182800002B13D0FFF768FF386108E0FFF764FF6B
:1018380002463B69D31A642B01D90323FBE1764B9B
:101848001B6803F40033002BF0D014E0FFF754FFBB
:10185800386108E0FFF750FF02463B69D31A642B52
:1018680001D90323E7E16C4B1B6803F40033002B19
:10187800F0D100E000BF7B681B6803F00203002B77
:1018880063D0654B9B6803F00C03002B0BD0624BB5
:101898009B6803F00C03082B1CD15F4B5B6803F4B7
:1018A8008003002B16D15C4B1B6803F00203002B4E
:1018B80005D07B68DB68012B01D00123BBE1564BC7
:1018C8001B6823F0F8027B681B69DB00524913434D
:1018D8000B603AE07B68DB68002B20D04F4B01227D
:1018E8001A60FFF709FF386108E0FFF705FF0246B5
:1018F8003B69D31A022B01D903239CE1464B1B6891
:1019080003F00203002BF0D0434B1B6823F0F802CE
:101918007B681B69DB00404913430B6015E03F4BB4
:1019280000221A60FFF7E8FE386108E0FFF7E4FEDE
:1019380002463B69D31A022B01D903237BE1364BBC
:101948001B6803F00203002BF0D17B681B6803F0CF
:101958000803002B30D07B685B69002B16D0304B16
:1019680001221A60FFF7C8FE386108E0FFF7C4FEDD
:1019780002463B69D31A022B01D903235BE1264BAC
:101988005B6F03F00203002BF0D015E0244B00221C
:101998001A60FFF7B1FE386108E0FFF7ADFE0246B6
:1019A8003B69D31A022B01D9032344E11A4B5B6F1D
:1019B80003F00203002BF0D17B681B6803F00403DB
:1019C800002B00F0A0800023FB75134B1B6C03F069
:1019D8008053002B0FD10023BB600F4B1B6C0E4AAA
:1019E80043F0805313640C4B1B6C03F08053BB60B3
:1019F800BB680123FB750B4B1B6803F48073002B3A
:101A080021D1084B1B68074A43F480731360FFF722
:101A180073FE386111E000BF003802400000474201
:101A2800800E474200700040FFF766FE02463B69A1
:101A3800D31A022B01D90323FDE0814B1B6803F461
:101A48008073002BF0D07B689B68012B06D17D4BFF
:101A58001B6F7C4A43F0010313671CE07B689B689B
:101A6800052B0CD1774B1B6F764A43F004031367A1
:101A7800744B1B6F734A43F0010313670BE0714B00
:101A88001B6F704A23F0010313676E4B1B6F6D4A7F
:101A980023F0040313677B689B68002B15D0FFF7BE
:101AA8002BFE38610AE0FFF727FE02463B69D31A8E
:101AB80041F28832934201D90323BCE0614B1B6F8A
:101AC80003F00203002BEED014E0FFF715FE386197
:101AD8000AE0FFF711FE02463B69D31A41F2883249
:101AE800934201D90323A6E0564B1B6F03F0020370
:101AF800002BEED1FB7D012B05D1524B1B6C514ABB
:101B080023F0805313647B689B69002B00F092805C
:101B18004C4B9B6803F00C03082B5CD07B689B69DB
:101B2800022B41D1484B00221A60FFF7E5FD3861CE
:101B380008E0FFF7E1FD02463B69D31A022B01D901
:101B4800032378E03F4B1B6803F00073002BF0D1B0
:101B58007B68DA697B681B6A1A437B685B6A9B014E
:101B68001A437B689B6A5B08013B1B041A437B682A
:101B7800DB6A1B06334913434B60334B01221A605F
:101B8800FFF7BAFD386108E0FFF7B6FD02463B698A
:101B9800D31A022B01D903234DE02A4B1B6803F00B
:101BA8000073002BF0D045E0274B00221A60FFF7A6
:101BB800A3FD386108E0FFF79FFD02463B69D31A91
:101BC800022B01D9032336E01E4B1B6803F0007378
:101BD800002BF0D12EE07B689B69012B01D10123FA
:101BE80029E0184B9B68FB60FB6803F480027B6864
:101BF800DB699A421CD1FB6803F03F027B681B6AD1
:101C08009A4215D1FA6847F6C07313407A68526A47
:101C180093420DD1FB6803F440327B689B6A9A4279
:101C280006D1FB6803F070627B68DB6A9A4201D0D8
:101C3800012300E0002318461837BD4680BD00BFC9
:101C480000700040003802406000474280B584B010
:101C580000AF786039607B68002B01D10123CCE0AC
:101C6800684B1B6803F00F033A689A420CD9654B1E
:101C78003A68D2B21A70634B1B6803F00F033A68D4
:101C88009A4201D00123B8E07B681B6803F0020385
:101C9800002B20D07B681B6803F00403002B05D0C1
:101CA800594B9B68584A43F4E05393607B681B6820
:101CB80003F00803002B05D0534B9B68524A43F4AA
:101CC80060439360504B9B6823F0F0027B689B68ED
:101CD8004D4913438B607B681B6803F00103002B9D
:101CE80044D07B685B68012B07D1474B1B6803F422
:101CF8000033002B19D101237FE07B685B68022B3E
:101D080003D07B685B68032B07D13F4B1B6803F04C
:101D18000073002B09D101236FE03B4B1B6803F0D4
:101D28000203002B01D1012367E0374B9B6823F0A6
:101D380003027B685B68344913438B60FFF7DCFC64
:101D4800F8600AE0FFF7D8FC0246FB68D31A41F2B4
:101D58008832934201D903234FE02B4B9B6803F051
:101D68000C027B685B689B009A42EBD1254B1B6891
:101D780003F00F033A689A420CD2224B3A68D2B267
:101D88001A70204B1B6803F00F033A689A4201D07F
:101D9800012332E07B681B6803F00403002B08D0A2
:101DA800194B9B6823F4E0527B68DB6816491343A0
:101DB8008B607B681B6803F00803002B09D0124B6B
:101DC8009B6823F460427B681B69DB000E49134360
:101DD8008B6000F021F801460B4B9B681B0903F050
:101DE8000F030A4AD35C21FA03F3094A1360094B2B
:101DF8001B681846FFF73CFC002318461037BD4601
:101E080080BD00BF003C024000380240F4D1010808
:101E180018000020000000202DE9F04385B000AF35
:101E280000237B600023FB6000233B600023BB6032
:101E3800644B9B6803F00C03042B07D0082B08D0D5
:101E4800002B40F0B680604BBB60B5E05F4BBB60D9
:101E5800B2E05C4B5B6803F03F037B60594B5B6807
:101E680003F48003002B4CD0564B5B689B094FF062
:101E7800000440F2FF114FF0000203EA010804EAEF
:101E8800020941464A464FF000034FF0000454014E
:101E980044EAD1644B0119462246B1EB080162EBD2
:101EA80009024FF000034FF00004940144EA9164E2
:101EB8008B015B1A64EB02044FF000014FF0000243
:101EC800E20042EA5372D9000B46144613EB0803AA
:101ED80044EB09044FF000014FF00002620242EAAD
:101EE800D35259020B461446184621467B684FF0D8
:101EF80000041A462346FEF7E1FE03460C46FB6043
:101F080049E0304B5B689B094FF0000440F2FF1139
:101F18004FF0000203EA010504EA020629463246A8
:101F28004FF000034FF00004540144EAD1644B0120
:101F380019462246491B62EB06024FF000034FF098
:101F48000004940144EA91648B015B1A64EB020477
:101F58004FF000014FF00002E20042EA5372D9004C
:101F68000B4614465B1946EB04044FF000014FF092
:101F78000002A20242EA935299020B4614461846FE
:101F880021467B684FF000041A462346FEF796FE6A
:101F980003460C46FB600B4B5B681B0C03F003030A
:101FA80001335B003B60FA683B68B2FBF3F3BB604C
:101FB80002E0054BBB6000BFBB6818461437BD463E
:101FC800BDE8F083003802400024F40000127A00D3
:101FD80080B58CB000AF0346FB71FB79002B0ED1A6
:101FE8000023BB61334B1B6B324A43F00803136376
:101FF800304B1B6B03F00803BB61BB6934E0FB7912
:10200800012B0ED100237B612A4B1B6B294A43F01D
:1020180008031363274B1B6B03F008037B617B6981
:1020280022E0FB79022B0ED100233B61214B1B6B75
:10203800204A43F0080313631E4B1B6B03F008038D
:102048003B613B6910E0FB79032B0DD10023FB605A
:10205800184B1B6B174A43F008031363154B1B6B94
:1020680003F00803FB60FB68FB79134A32F813306E
:10207800FB6101233B6201237B620223BB62FB7984
:102088000E4A52F8233007F11C0211461846FEF793
:1020980097FFFB79094A52F82300FB79064A32F880
:1020A800133000221946FFF725F900BF3037BD4627
:1020B80080BD00BF00380240A06901080800002068
:1020C80080B582B000AF0346FB71FB79074A52F82E
:1020D8002300FB79064A32F8133001221946FFF72C
:1020E80009F900BF0837BD4680BD00BF08000020C1
:1020F800A069010880B582B000AF0346FB71FB7987
:10210800074A52F82300FB79064A32F813300022B6
:102118001946FFF7EFF800BF0837BD4680BD00BF7E
:1021280008000020A069010880B400AF00BFBD46C8
:102138005DF8047B704780B400AF00BFBD465DF812
:10214800047B704780B400AF00BFBD465DF8047BD8
:102158007047000080B500AF0B4B1B68DB6803F4C9
:102168008063002B0AD0FFF7DFFF074B1B68DB6893
:10217800DAB2054B1B6862F49062DA60034B4FF4E5
:1021880080025A6100BF80BD7C080020003C0140ED
:1021980080B500AF144B1B68DB6803F48073002B19
:1021A8000AD0114B1B68DB68DAB20F4B1B6862F46C
:1021B800C072DA60FFF7BFFF0B4B1B68DB6803F4E4
:1021C8000073002B0AD0084B1B68DB68DAB2064B99
:1021D8001B6862F42072DA60FFF7B4FF034B4FF418
:1021E80000325A6100BF80BD7C080020003C0140DD
:1021F800002A40F36A81002940F36781002800F033
:102208006481002B00F061812DE9F04F01FB02F59C
:1022180083B000EB850584460446F0EE006AB8EE0C
:10222800007AD4ED007AF4EEE67AF1EE10FA88BF7F
:10223800F0EE667AF4EEC77AF1EE10FAB8BFF0EE77
:10224800477AE4EC017AA542EBD19500C2EB82749F
:102258009A46DFED9E4A431901934FEA8408F7EE48
:10226800006A4FEA4209BFEE005AFAEC015A634687
:10227800002093ED007A27EE256A013076EE267A63
:10228800B5EEC06AF1EE10FA67EE877A04DA814299
:10229800C3ED007A2B44ECD100268E429CED004A17
:1022A80080F2D18002FB06F70CEB8703D3ED007AAE
:1022B800F4EEE67AF1EE10FA25DCF4EEC57AF1EEEA
:1022C80010FA20D4D0190CEB800033460CE0D0ED86
:1022D800007AF4EEE67AF1EE10FA284414DCF4EE13
:1022E800C57AF1EE10FA0FD401339942EFD19FED80
:1022F800786A019B0AED016A0CF1040C6345B4D1BC
:1023080003B0BDE8F08F3346002BB0EEE76AD8BFC4
:1023180018463ADD03F1FF3E0EFB02F40CEB840095
:1023280090ED007A27EE877AB5EEC07AF1EE10FAD2
:10233800C0F29580BEF1000F23D0A01A0CEB8000EC
:1023480090ED007A27EE877A981EB5EEC07AF1EE06
:1023580010FAB8BF7046C0F28380A4EB09040CEBF6
:1023680084040AE094ED007A27EE877A4444B5EEB7
:10237800C07AF1EE10FA73DB704600F1FF3E0028D8
:10238800F0D18B4280F29E8000205C1C02FB04FB93
:102398009E460CEB8B0B14E09BED007A67EE275AF8
:1023A800B0EEC77AF5EEC05AF1EE10FA0CDBB4EED7
:1023B800C67AF1EE10FAC4BFA646B0EE476A0134F9
:1023C800AB44A1422346E7DC00284FD19CED007ABC
:1023D80027EE877AB5EEC07AF1EE10FAACBF4FF06F
:1023E800010B4FF0000B76EE665A26EE066AF5EE04
:1023F800C07A85EE867AF1EE10FA27EE246AC8BF15
:10240800B1EE466A984211DA02FB00F40CEB840440
:1024180094ED007AF0EE667AE7EE067A01308342B0
:1024280067EE877AC4ED007A2C44F1D1BBF1000F36
:1024380002D0BEF1010F1CDC8B421E463FF459AF9F
:102448008E42FFF62FAF3FF452AF02FB06F70CEBBC
:102458008703D3ED007A3346B0EEE76A5AE71846A9
:102468008B4292DB9E464FF0000BBCE74FF0000B0F
:10247800B9E79CED007A07EE90EA34EE477AF8EE79
:10248800E77A7645C7EE275AD6DA0CEB8707013686
:10249800D7ED007A37EE657A77EE877AF4EEE67A4A
:1024A800F1EE10FA88BFF0EE667AF4EEC57AF1EE36
:1024B80010FAB8BFF0EE457A7645C7ED007A2F449A
:1024C800E5D1B9E79E46002080E770470200803FCB
:1024D80000000000007803061CD400F06003602BA5
:1024E8000BD0C0F3C10003281ED0144B814083FBDE
:1024F8000130C917C1EB60107047104B10F0080F7E
:102508004FEAE17083FB013114BFC0EB2110C0EB2F
:1025180061107047C0F3C100084B814083FB013054
:10252800C917C1EBE0107047C1EB011104488900DD
:1025380080FB0130C917C1EBA01070471F85EB5114
:10254800D34D62102DE9F04F85B00F9D0192002DFB
:1025580000F0FF810029C0F2FC814CD007783A06D0
:102568004FD407F06004602C00F05D81C7F3C1040C
:10257800032C00F08C814BF68036DFF8C8C3A640E8
:10258800ACFB0646760907F0030CBCF1010F00F11D
:10259800010401F1FF3E00F034814FFA8CF8B8F1E4
:1025A800000F39D0BCF1020F00F00B81BEF1000F13
:1025B80021D090F8018008F03F09CC46B9F1000F0E
:1025C80019D006FB09F6B6F5B45F14DC8E1E18F0B8
:1025D8004004029600F037816EB18678FF2EA1F193
:1025E800030A00F1030400F087813146BAEB0602C2
:1025F800029240F12A816FF0030C604605B0BDE8F5
:10260800F08FC7F3C10C4BF68036CE4C06FA0CF6A9
:10261800A4FB0646F609B6E74146CDF80C804FF014
:10262800010CF046019A002A00F0B7800CF1004234
:10263800013ACDF808E05200C646029E05EB0209B1
:10264800002E00F0928194F80080B8F1FB0F40F260
:102658001681012E00F0808194F801B04FF0020A33
:1026680008EB8B08A9F80080D346A6EB0B06B0450B
:102678000196C0DC039E5444002E00F0CF80019EDA
:102688000CFB08FEB645B6DCBCF1010631D0012EC4
:10269800A5F800802DD00CF10046013E760002F12D
:1026A800020E9642C8BFBEF1020F00F33781ACF1AB
:1026B8000302092A40F23281B9F900A04FF0000E56
:1026C800ACF102086AF30F0E4FEA5806AA1C6AF327
:1026D8001F4E02EB860642F804EBB242FBD128F00B
:1026E8000102424502F1010603D0B9F9002025F89C
:1026F8001620109A12B11646221A32600E9A002A33
:1027080056D0043A023D02EB8C0E42F8044F35F9DC
:10271800026F72453444F8D1119A12B1201A01445B
:10272800116003B11F70604605B0BDE8F08F029ECE
:10273800B6FBF9F808FB09FEB6457FF45CAFB9F1C2
:10274800010A2AD0A9F10209B9F1020F0FFA88FB90
:1027580012D9019A4FEA5A0E6BF30F026BF31F421C
:1027680005EB8E0E2E4646F8042B7645FBD12AF053
:1027780001025245019210D0019A02F1010EF24570
:1027880025F812B04FEA420607DD2E440232924580
:10279800A6F802B001DDA6F804B040F2FB4290456D
:1027A8003FF729AF0CF10042013A25F81280A0E763
:1027B800023D05EB4C0635F9022FAE421444FAD11E
:1027C800AAE7BEF1000F00F0CC8090F80180B8F1C4
:1027D800FB0F4CD9BEF1010F00F0C380817808EBE4
:1027E8008108A5F800806146AEEB010EF0453FF781
:1027F80002AF00216444AEEB080803914FF0020CCD
:1028080010E7019ABAB91EF001017FF4F4AE4FEA5D
:102818006E08A5F800804FF0020CBEE7D844F045DA
:102828007FF767AFE7E617F0080F14BF4FF470762D
:102838004FF4F076A7E60222CDF80CC0CDF808E0F8
:1028480094460021F9E62146841C4FFA88F86FEA7D
:102858000806F60FB8F1000F03961BDB019A002A51
:102868003FF465AF09F10042013A5200E5E60FFA7C
:1028780088F84FF0010CA5F800806146B4E70FFA1C
:1028880088F84FF0010AA9F80080D346EDE64FF426
:10289800346678E6B9F1010F6BD0029A0291A5F17E
:1028A800020E0EEB49069046B346AA461646019A12
:1028B80015E0012E48D094F801E001EB8E01AAF84A
:1028C8000010CE46A6EB0E06B1428E440AF1020A6B
:1028D8004C44A8EB0E083FF78EAED3452AD04FF0F4
:1028E80002098EB32178FB29E3D809B24FF0010918
:1028F800AAF80010CE46E5E7019A0021AAF1FE06E3
:10290800002E01F1FE01AAF1FF0A7FF774AE14F858
:10291800016BFF2EF2D00192314467E6A5F1040E57
:102928000EEB4C0E2A46B9F9006022F8026F964564
:10293800F9D1DEE6B8F1000F02990192FFF65BAE1D
:10294800B6466FE61F85EB514FF6FF73AAF80030C5
:1029580051E64FF0FF3CE6E64FF6FF73A9F800306A
:1029680049E64FF6FF732B8045E64FF6FF73AB52EF
:1029780041E6DDF808E0F04654E600BF2DE9F04FE7
:102988002DED028B0446A5B0A248D4F80CE004AFA4
:10299800D4E9005880FB0E0C4FEAEE70C0EB2C1601
:1029A800D7F8B0B0FD614FEAE60A35463E627B6370
:1029B8000026AB10DA457B62BE643963BA6200F365
:1029C8001C85C0EBEC0000EB400083454FEA65092D
:1029D8005D46A8BF0546012A40F3DF80002900F0C4
:1029E800E08007F15003FB631846A36BBB63636B7E
:1029F800D4F840B0BB6106F0F3FFE26B002A40F365
:102A08005A84B96B40F2EA33994200F0EF829A4255
:102A180000F0CD847E617E605D45C0F20A83D945B1
:102A2800A368B8BFD94603FB09F35B00073323F05B
:102A38000703ADEB030D40F2EA3304A99A42A04420
:102A4800396100F02F844FF47A7303FB0BF3E268CB
:102A580093FBF2F30A2BB8BF0A2323623B6B002BCC
:102A680000F06483236B6361BB6BB3F57A7F00F07E
:102A780060834FF47A53E361D7F8B4304FEA4309DF
:102A880004F11003C7F80CA03E6900259A4609E036
:102A9800A3687A6C03FB02FC4FEA4C0315445D45BE
:102AA8001E442CDA07F14403E26AF96B0293B5FA83
:102AB80085F30091039201965B094A4651464046C8
:102AC8000DF076FA0028E3D000213046B9F1000F66
:102AD80000F0DF82A368C7F844B003FB0BFC4FEAA1
:102AE8004C03BCF1000F1A46FB6240F3FE8212F061
:102AF80029FA5A46FB6A15445D451E44D2DBD7F8CD
:102B0800B430D7F80CA0002B40F0CC823B6B002BE4
:102B180000F04784FB6E7A6EA16BB3FA83F3C3F1BE
:102B2800200340F2E930D31A814203F1110208BFB1
:102B380003F12502BB6AB2EBC30F00F3B382BA6B91
:102B480040F2E9339A4200F002840121F86B07F061
:102B58002DF8FA6E7B6EB96AF863B2FA82F2C2F1A6
:102B680020029B1ADA1DD210891AB9600121C7E91F
:102B78000A21B3EBC20F40F30B847B687A699B0090
:102B8800073323F00703ADEB030D04AB002A00F075
:102B980037840022BA621125B5E2236C9D42A8BF92
:102BA8001D46E36BBB631A4613B33B6A9D4233DD94
:102BB800D7F834902E464FF000089A4656453346CB
:102BC8004FF00002A8BF5346CDE9003811464B46E6
:102BD8002046FFF7D3FE0028A6EB0006C0F2898244
:102BE800A368002E03FB00F309EB8309E6DC09E088
:102BF800A26802FB05F2002A04DD92001946786BF0
:102C080012F0A0F928468437BD46BDEC028BBDE81A
:102C1800F08F00BF1F85EB51C0F2D48100233B63C6
:102C2800BB61B96B40F2EA3399424FF000037B6114
:102C3800AB4640F0D783FB6004AA00233A6140F218
:102C4800EA321D46BA63073323F007037A69ADEB0E
:102C5800030D04AB002A00F0B383B96B40F2EA32EB
:102C6800914240F04E820023FB63BB60FB62FB692C
:102C780023441E46BB697BB1A3F24D43032B96BF89
:102C8800C94A152252F8232042F21C71304606F038
:102C980039FB002840F0FD81226B42F21871304662
:102CA80006F030FB002840F0F481FB6A002B40F06E
:102CB800C38104ABFB612A4642F21A71304606F022
:102CC80021FB0546002840F0E481BB6BD4F83C901A
:102CD800B3F57A7F00F0EE813A6A5A45A8BF5A46A2
:102CE8004B45154606D0B9F1000F03DD636C002B88
:102CF80000F06A83D7F8B4300095002B4FF000023B
:102D080007F15003CDE90132396B7B6B18BF1146CF
:102D18003046BA6A05F0DAFCBA6B40F2EA339A42F6
:102D2800054600F0DF81A36807F14C0903FB0BF8A7
:102D3800B8F1000F14DD3B69DFED9C6A9A1E7B6BCE
:102D480003EB880832F9021FD3ED007A07EE101A58
:102D5800B8EEC77AE7EE267AE3EC017A9845F1D126
:102D68004A4642F21F71304606F0CCFA002840F07D
:102D78009081FB6CDB6B3B62FB6A002B5ED0FB6BCC
:102D8800002B00F0E881D4F808E0BEF1000F55DD13
:102D9800BAF1000F52DDFE69D7F834C04FEA8E024F
:102DA80006EB02086046314600230133D1F8009053
:102DB800C0F800909A4511441044F6D10436B04545
:102DC8000CF1040CEED10EFB0AF3796BF869C7F825
:102DD80030B09B00184401EB0208D7F820B04BF63E
:102DE800803901EB030C98448646E36899FBF3F3BA
:102DF800F7EE005A4FEA83095E46704663460021A3
:102E080096ED007A90ED006AD3ED006A27EE077A16
:102E1800013175EEC77A8A4567EE867A4E44E7EE49
:102E2800267A1044C3ED007A1344E9D10CF1040C5E
:102E3800E0450EF1040EDFD1D7F830B07B69002BE6
:102E48004DD0E368A6684BF6803C9CFBF3F87B6AA0
:102E58009B45C0F2F08106FB0AF9B9F1000F4FEA71
:102E6800890904DD4A46F968786BFDF7A9F9002E4F
:102E780035DDBAF1000F32DD7A6BF968C7F830B08A
:102E8800B60049449319D7F820B04FEA880C8E460B
:102E980003EB0908F7EE005A9144584671464B4631
:102EA800002290ED007A91ED006AD3ED006A27EEDA
:102EB800077A013275EEC77A924567EE867A6044E2
:102EC800E6EE877A3144C3ED007A3344E9D109F15B
:102ED8000409C1450EF1040EDFD1D7F830B0A36A5A
:102EE800002B43D007EE903AB8EEE78ADFED307A50
:102EF80028EE278A18EE100AFDF760FB41EC100B4C
:102F080012F0A6FA51EC100BFDF760FE10F1320F2B
:102F1800C0F21E8107EE900AF8EEE75A9FED256A87
:102F2800DFED256A9FED257ADFED257A38EE658A93
:102F3800E8EE066AA8EE267AE8EE077A17EE903AE7
:102F480003EBC05323F0004307EE103AA26802FBDC
:102F58000BF2002A0ADD7B6B03EB8202D3ED007AC9
:102F680067EE877AE3EC017A9A42F7D1BB6A012BC4
:102F780040F39E80FB6EBA6C53406365BB6BE363A2
:102F8800FB6A23B1FB6BB3FA83F35B09FB62FB6A51
:102F9800636415EA250538BF5D4628468437BD4673
:102FA800BDEC028BBDE8F08FA8690108000000386D
:102FB8002D152A3A52CB9F3D267E673E2622323F68
:102FC80019FB7F3F4D4500F37281BB6BB3F57A7FE8
:102FD80000F098817B6A9D427FF720AE4D45BFF691
:102FE8001DAE9B4600233B63BB6164E18A421BD054
:102FF800626CCAB9796AA36803FB01F39B000733C3
:10300800594523F00703ADEB030DA8BF59460B46FE
:1030180004A9F960CDE9003220460B461146FFF7B6
:10302800ADFC01237B6101E07E61FE605D45BFF67A
:1030380003AE4FF0FF35E5E5A3687A6A03FB02F3B8
:103048009B00073323F00703ADEB030D04ABFB61D3
:10305800FB6B002B3FF42FAE024642F21A7130464A
:1030680006F050F9A8B9CDE90100396BB86A7B6A56
:1030780000930144BA68FB69304605F027FB07F165
:10308800480240F6BF71304606F03CF900283FF48C
:1030980012AE6FF0020528468437BD46BDEC028BA0
:1030A800BDE8F08F7B6800229B00FA601125CAE515
:1030B800002362E7A368C94A03FB0BF81288A7F844
:1030C8004C20B8F1000F05DD01464FEA8802786B05
:1030D80011F038FF40F2E933994500F0F28007F12A
:1030E8004C0925E607F14C093AE64FEA4C035A46E3
:1030F800D4E4054628468437BD46BDEC028BBDE8BE
:10310800F08F0022FA63796AFB605945A8BF5946D7
:103118000022084600900192114620461646BA60E1
:10312800FFF72CFC0123FE627B61A0E54FF001094B
:10313800A6E4BA6940F24D439A4200F0598140F240
:103148004E439A427FF495AC42F6E063E36193E420
:103158009FEDA37AFAE640F6BC71304606F0D2F845
:10316800002896D1D7F83C8042F21A714246304680
:1031780006F0C8F800288CD17B6AB86A00933B6BCC
:10318800BA6803441946CDE90188FB69304605F061
:103198009DFA304607F1480240F6BF7106F0B2F8D2
:1031A80000287FF476AFD4E90263ABEB0A0806FB8C
:1031B80008F80AFB06FE002E4BF6803C4FEA88080A
:1031C8004FEA8E0E9CFBF3FC7FF738AEBAF1000F86
:1031D8007FF734AEFB697A6BC7F830B0B6000EEBF8
:1031E8000609D7F820B090444FEA8C0C99449E44C5
:1031F800F7EE005A584643467146002290ED007A91
:1032080093ED006AD1ED006A27EE077A013275EE78
:10321800C77A924567EE867A6044E6EE877A31444B
:10322800C3ED007A3344E9D10EF1040EF14508F1FB
:103238000408DFD100E6002E7FF751AEBAF1000F87
:103248007FF74DAE7A6BC7F830B0B300D7F80C9063
:10325800D7F820B04FEA880C964603EB0208F7EE41
:10326800005A5E4648467246002196ED007A90ED77
:10327800006AD2ED006A27EE077A013175EEC77A47
:103288008A4567EE867A6644E7EE267A1844C2EDE8
:10329800007A1A44E9D10EF1040EF04509F1040947
:1032A800DFD11AE640460CF06FFEFFF7CCBB0023D7
:1032B8003B63BB61CB46AB45D8BF5D463FF7B9AE74
:1032C800AFE4FB6A2BB1FB6B1BB1636C002B7FF483
:1032D80006AF002242F21A71304606F013F80028B1
:1032E8007FF4D7AE07F14C09CDE901007B6BCDF82F
:1032F80000A049460222304605F0E8F9A36803FB1E
:103308000BF815E5A945A368B8BFA94603FB09F35F
:103318005B00073323F00703ADEB030DBB6B03FB27
:1033280005F393FBFEF30A2BB8BF0A23002204A976
:10333800236207F15003BA61A0443961AB463A638E
:103348007A607A614FF00109FB63FFF799BB0C21A2
:10335800F86B06F02BFC0246F86218B3FD6B0121EE
:10336800284606F023FC4FF48071F863284606F0DF
:10337800C3FCFA6E7B6E811CB86AB960B2FA82F23D
:10338800C2F12002411A9B1AB9620A46FFF7F1BB43
:103398007B6DB96800225B1A7A617B65FA6011253A
:1033A80065E41A467B68FA609B0011254BE401210D
:1033B800A3687961796A03FB01F37B60FFF72CBB93
:1033C800FA63BA60FA6252E440F6BC71304605F01E
:1033D80099FF00283FF48EAC5BE600BF90690108B6
:1033E800000000007B6007F15003FB63FFF717BB89
:1033F8004FF4FA53E361FFF73FBB6FF0010501E4B7
:10340800BA60C7E90A221125FA6030E4F0B54BF634
:103418008033994283B00DD045F6C053994209D004
:10342800B1F57A5F06D042F6E063994202D0B1F571
:10343800FA5F50D1531E012B4DD8044601A81646F9
:103448000D460CF09BFD002836D0002200212046B6
:1034580011F078FD01A80CF091FD002838D1019BEE
:10346800A660033323F0030303F158075821C4E986
:1034780000712663E560A561266160180193274401
:103488000CF082FD20BB32462946384606F022F869
:103498000646E8B942F220713846324605F032FF56
:1034A8000E49E66381FB0531ED17C5EBE115E662D0
:1034B8002564304603B0F0BD019B033323F00303BA
:1034C8003046019305F0EAF8019A58320244BDE704
:1034D8006FF00206EDE74FF0FF36EAE71F85EB5184
:1034E800F0B54BF68033984283B00DD045F6C05303
:1034F800984209D0B0F57A5F06D042F6E063984268
:1035080002D0B0F5FA5F24D14B1E012B21D8044616
:1035180001A816460D460CF031FD70B1002011F0DF
:10352800E1F9074620B32A462146FFF76FFF06B1A7
:103538003060B0B9384603B0F0BD019B033323F0C7
:1035480003032846019305F0A9F8019B5833184452
:10355800E5E74AB100274FF0FF333846136003B060
:10356800F0BD384611F0C6F90027384603B0F0BD63
:10357800002EF9D06FF006033360DBE72DE9F04F3A
:10358800A5B0DDE92E57012F00F224810793894663
:103598000446002F72D0C168914B83FB0138CB17CA
:1035A800C3EBE81395FBF3F803FB1858B8F1000FC9
:1035B80040F01081002A73D0B9F1000F70D0002AB2
:1035C800C0F2088199F80030190600F1AF8003F0C5
:1035D8006001602900F081805B0903F24D4B4FF4D4
:1035E8007A730993E16808924846FEF773FF319BA6
:1035F800089A82460DF1300899F8000003930BAB46
:10360800CDE90183002310F0040F11460093309A8E
:103618000DF12B03484614BF02260126FEF792FF40
:10362800002828DB0B9B9944002F00F08C8055451F
:10363800C0F2BA80099A40F2EA339A4200F0B480A4
:10364800A26B9A4200F0B0805545A5EB0A0751D00D
:10365800329B04930023CDE90233CDE900730022A5
:10366800079BD4F8488011462046FFF787FF0028BB
:1036780040DAC4F8488025B0BDE8F08F0AB10029C7
:103688009DD1E268564B83FB0238D317C3EBE8138E
:1036980095FBF3F803FB1858B8F1000F40F09A8037
:1036A8000027079E01E0454511DDA3680197A5EBBA
:1036B800080103FB08F30022009106EB830311467F
:1036C8002046FFF75BF900288044ECDAD3E7404650
:1036D800C4F8488025B0BDE8F08F13F0100F40F211
:1036E800514318BF9B4640F2E93308BF4FF48A6B39
:1036F800099377E7A368099A0798A26303FB07F37E
:103708000122C4F834B0C4F840A0266300EB830358
:103718000192CDF800A04946BDF930202046FFF7B8
:103728002DF90028A7DBA5642846A4E7C3F34113B5
:10373800002B03F24E4B40F24D4308BF9B4640F22C
:10374800EA3309934EE700FB0AF3AB4245DC099BD9
:10375800C4F840A0C4E90DB32663E8B108EB400BF8
:10376800BA46079E04E038F9023CD845994412D07D
:10377800A368CDF804A0EA1B03FB07F3009206EB4D
:10378800830338F9022B49462046FFF7F7F800284B
:103798000744E8DA6FE70796329BA7648BB90023E2
:1037A80038462365E36466E70022329B049300955C
:1037B800079B01922046CDE902221146FFF7DEFE63
:1037C80059E70798A26804F14C033946FEF710FD43
:1037D800384650E74FF0FF304DE76FF001004AE7F9
:1037E8001F85EB512DE9F04F2DED048B89B006AF05
:1037F800D7E91096B9F1000F40F38A801D468A4632
:10380800804619B1002A01DD002E5AD0D8F80830B8
:1038180003FB09F39B00073323F00703ADEB030D0C
:103828000020012306AC01960493CDE9020051461D
:10383800CDF8009023464046FFF7A0FE061E39DD6E
:10384800D8F8083003FB06FABAF1000F32DDDFF8CA
:10385800D8909FED329ADFED328A9FED328A4FF091
:10386800000804EB8A0A023DF4EC017A67EE897AD3
:10387800F4EEE87AF1EE10FAB8BFF0EE687AF4EEFA
:10388800C87AF1EE10FA8CBF18EE100A17EE900AFB
:10389800FCF794FE42464B46FCF732FD41EC100B18
:1038A80011F0D6FD51EC100BFDF790F9A24525F863
:1038B800020FD9D130460C37BD46BDEC048BBDE8AC
:1038C800F08F0B78D0F80CB013F003031CD0032B47
:1038D8001CD1012A1FD0487800F03F0459465046B1
:1038E8007A60FEF7F7FD04FB00F000EB80030BEBBA
:1038F8004B0B03EB83035B450DDC00280BDD814597
:10390800A8BF81467A6881E70124E7E70224E5E752
:103918004FF0FF36CEE76FF00306CBE70000004715
:10392800000000C700FEFF460000E03F2DE9F84F09
:10393800944602FB01F292000E46D11D21F00701C8
:1039480000AFADEB010D694643BBBCF1000F20DDB4
:10395800002E1EDDC6EB8679C6EB46784FEA8C0C46
:1039680000EB0C0A4FEA89094FEAC80801EB860602
:10397800864606EB090B5C4673461D6844F8045BF3
:10398800B4426344F9D10EF1040ED645ABEB0806F8
:10399800EFD1FCF715FCBD46BDE8F88FBCF1000F70
:1039A800F7DD002EF5DD0CF1804CACF1030C4FEA8D
:1039B8008C03114C03F10C0C04EB03080CEB00090D
:1039C800864658F8043F03FB06F306EB030A01EBAF
:1039D8008A0A01EB83037446256843F8045B9A4519
:1039E8006444F9D10EF1040EF145EAD1FCF7E8FB85
:1039F800BD46BDE8F88F00BFE86901082DE9F84F1A
:103A0800944602FB01F292000E46D11D21F00701F7
:103A180000AFADEB010D694643BBBCF1000F20DDE3
:103A2800002E1EDDC6EB8679C6EB46784FEA8C0C75
:103A380001EB0C0A4FEA89094FEAC80800EB860631
:103A48008E4606EB090B5C46734654F8045B1D6012
:103A5800B4426344F9D10EF1040ED645ABEB080627
:103A6800EFD1FCF7ADFBBD46BDE8F88FBCF1000F08
:103A7800F7DD002EF5DD0CF1804CACF1030C4FEABC
:103A88008C03114C03F10C0C04EB03080CEB01093B
:103A98008E4658F8043F03FB06F306EB030A00EBD7
:103AA8008A0A00EB8303744653F8045B2560534588
:103AB8006444F9D10EF1040EF145EAD1FCF780FB1C
:103AC800BD46BDE8F88F00BFE86901082DE9F04F51
:103AD8002DED048BD0E902598FB00446DDF878C08B
:103AE800286EAE680690E06907900CFB06661C9885
:103AF80005904E441D9809908B4606991F986F6E45
:103B0800089031F91600D4F800E0D4F81480BCF11C
:103B1800FF3F1E461146B0EE408A07EB000A3B5CA9
:103B280000F0A7801AF803200C32B24280F2A1807C
:103B3800022940F39E804FEA610A05984FEA8A03FA
:103B48000C930CF1FF325B4401280A920B9303D1CA
:103B5800089B63F35F030893AB6B33F919200A9B47
:103B680002EBC3024FEA4A03B11A57105A1E059BCB
:103B7800043FA1F11F005D1C02FB076393FBF2F3F6
:103B88008342A8BFA1F12003032B4FEA650900F384
:103B98008381BEF1000F40F09283079D284605F00F
:103BA80003FF8046284605F0FFFEA0EB0800361A02
:103BB80001220899DFEDB28A9FEDB29AB24B02FA60
:103BC80009F2013A114068EE288A0022089106920B
:103BD800F31A03EBD3735F10236AB742A8BF3746C3
:103BE800A3EB0008099BC4F8208027EAE777F61BB7
:103BF800002B00F002830C9A1A440792059B5D1073
:103C0800089BB74243FA09F20592C0F20B8103936D
:103C18000A9B0293099B5946CDE90093B0EE680AC6
:103C28003B4652462046FFF751FF236AA8EB0303A1
:103C3800FF1A182F834603DD069B0BB1183F3E443D
:103C4800059B03930A9B0293079B0B99CDE900936D
:103C5800B0EE490A334652462046FFF737FF00FACE
:103C680005F545EA0B0528460FB0BDEC048BBDE809
:103C7800F08F03F1010C4FEA6C0C751E1AF80C203A
:103C8800AA42A4BF63464FF0000C0CEB03020132BA
:103C980052101AF80290A945A4BF1346624602EBD7
:103CA800030C0CF1010C4FEA6C0C1AF80C904D4502
:103CB800DCBF6346944603EB0C02013252101AF83B
:103CC80002904D45DCBF1346624603EB020C0CF133
:103CD800010C4FEA6C0C1AF80C904D45DCBF63469A
:103CE800944603EB0C02013252101AF802904D452B
:103CF800DCBF134662461AF803C0ACEB050C002A79
:103D080039D01AF80260AD1BAC45164669DB1AF8C3
:103D18000650236A01355B1B002B23620CDA104422
:103D280007442B44013A236227D017F8015D013577
:103D38005B1B002B2362F4DB072A06DD02F0070376
:103D4800D2100833013A03FA02F2BEF1000F4DD047
:103D5800079BE56A64681D93059B1C93B0EE480AAF
:103D680043465846CDE91E450FB0BDEC048BBDE86F
:103D7800F04F09F003BBB44533DB6568002D3FF411
:103D880072AF059B089A01259D406B1E12EA030538
:103D98003BD0099A002A00F03782002915DDA36A72
:103DA8003A4F3B4E9FED3B7A02EB810C584607FB9E
:103DB800036313F4004FF2EC017A2CD177EEC77A43
:103DC8006245E0EC017AF2D1A3625846E26AB0EEAD
:103DD800480A09F019FD28460FB0BDEC048BBDE870
:103DE800F08F002BC9D01E461A4690E7079B1D93FB
:103DF800059B1C93B0EE480A434658460FB0BDECED
:103E0800048BBDE8F04F09F037BC8A0058462946B4
:103E180011F098F827E777EE877A6245E0EC017AA7
:103E2800C5D1D1E70A9B0293079B0392CDE9009382
:103E3800B0EE490A33460B9952462046FFF746FE34
:103E4800236AA8EB0308A6EB0806182E00FA05F566
:103E580005DD069BB3F5804F1CBF183EBF19089BB4
:103E680003930A9B0293099BB0EE680ACDE900937D
:103E780052463B4659462046FFF728FE0543F2E6E0
:103E880000FE7F3F0000000000C0FFFF0D66190024
:103E98005FF36E3C0000803B402BA8BF402303F03B
:103EA8000701D74ADB1032F91150C3F10E031D4147
:103EB800013525F00105BEF1000F40F0B6800798E6
:103EC80005F072FD059B0D90012B40F37581691C6F
:103ED800079805F011FF4FEA8038B8FBF5F3069311
:103EE800079805F061FD0D9BC01A069B361A002B3A
:103EF8003FF45EAEB3F5804F00F09D81C3F580417D
:103F080009B24FF48053BDF91880DFEDBE7A01FB8A
:103F18000131491308FB08384FF480450FB24FEAC6
:103F280068384FF68E530FFA88FC17FB035242F29B
:103F3800550E1CFB03530EEBE2320EEBE33392B249
:103F480007FB02F29BB22A440CFB03F32B44D21367
:103F5800A2F5EF52DB13033AA3F5EF5317FB025216
:103F6800C1F50041033B1CFB035301EBE232C8F5EA
:103F7800004812B208EBE3331FB2B2FA82F11346DB
:103F88000797A1F11102B7FA87F80D9303FA02F225
:103F9800079B9DED0D7AA8F1110712B24FF2DB5E77
:103FA80003FA07F712FB0E5C3FB241F6FC6317FBFE
:103FB8000E5E03EBEC3C1FFA8CFC03EBEE3302FBCA
:103FC8000CF2A8EB01019BB22A4407FB03F3C902D8
:103FD8005F1901EBE2320AF1FF3328EE278AA2EBE0
:103FE800E732DB01DDED077A13FB0253059DB8EEDE
:103FF800C79AF8EEE78A012D4FEAE33329EE089ACB
:1040080068EE888A7FF7E4AD0699C1F30D02002AAD
:104018003FF4DEADB1F5005F40F31E810A9AC2F1AC
:10402800040243FA02F29B1AD2E5E36A00930022E3
:1040380053460B99584609F01FFC0746079805F0A8
:10404800B3FC07FB05F7A36B0D9007F50057BF13EB
:10405800002B00F09C80002F4FEA873840F38E80B9
:10406800AF4280F28B80B8FBF5F34FF48052C3F572
:10407800804E1BB203FB03230FFA8EFE0EFB0E2E9F
:104088005B1318464FEA6E3E0FFA8EF106904FF614
:104098008E534FF4804C11FB03C2BDF9180042F255
:1040A800550C0CEBE2324FF4804C10FB03C342F288
:1040B800550C0CEBE33392B29BB201FB02F200FB0E
:1040C80003F302F5804203F58043D213DB13A2F514
:1040D800EF52A3F5EF534FF4804C033B033A11FB27
:1040E80002C210FB03C0CEF5004E069B0EEBE23E6B
:1040F8000FFA8EF2C3F50043B2FA82F103EBE03314
:104108001BB2A1F1110006918240B3FA83F112B2F9
:10411800A1F111004FF2DB5E834012FB0EC041F6A5
:10412800FC6C0CEBE0301BB24FF4804C80B213FBFC
:104138000ECE02FB00F041F6FC6C069A0CEBEE3E4C
:104148008A1A1FFA8EFE03FB0EFE00F58040D2028B
:1041580002EBE0320EF580410AF1FF33A2EBE132C7
:10416800DB014FF4804C13FB02C3DB13B34200F3B3
:10417800A2807242934201DA0027B846059B012BC0
:104188007DDD39466A1C079805F08AFFA5E6059B80
:10419800012B00F38D806A10531C03FB03F34FEAD5
:1041A8008738BA4262DB7A1C07FB02F149100A44DD
:1041B800079805F0B3FE90E66F107B1C03FB03F82D
:1041C80041460798069305F079FC069B07FB03F721
:1041D800B0EB670F58DAC000013006F077FC013801
:1041E80047087A1C02FB07F1491043460A4407981E
:1041F80005F08AFC4FEA87386FE60793FEE400BFB4
:10420800D86901080000003800294FDDA26A334F41
:10421800334E58460BEB81059C4607FB026213158B
:1042280007EE903AF8EEE77AE0EC017A8542F4D1AD
:10423800A2626546C9E5012303FA09F3089A9FEDCE
:10424800299ADFED298A013B03FA09F31A400892FB
:1042580028EE099A069BBBE40A994FEACA02C1F103
:1042680005010A41134403EAE373B1E46A1CA91C7B
:10427800D21BC91B02FB01F1A3EB610197E76A108E
:10428800531C03FB03F38CE7A8EB0000C0000738BE
:1042980006F01CFC6A1CC0EB42004708A91CD21B94
:1042A800C91B02FB01F1A8EB61019EE71D468CE5E5
:1042B8004FEA873865E72F464FEA85385EE7E36AB5
:1042C8000093002253460B99584609F0D5FA0690F8
:1042D800079805F069FB0D9002E600BF0D6619000E
:1042E8005FF36E3C00FE7F3F000000002DE9F04FB9
:1042F8002DED028B8BB08B4607900168D0F8189093
:104308000692DDE9160A012A144608930591B2FBC4
:10431800F0F51B9F00F0EA81B9F1000FB0EE408A7A
:1043280040F38D811A9B4BB1BAF1000F06D051466C
:1043380092001A98FBF744FFDDF868A0DFF8508375
:104348009FEDD27ADDF814E009950023BEF1000F45
:104358007CD1BAF1000F32D0069A42FA03F001225A
:1043680002FA03FCBCF1000F40FA02F027DD002836
:1043780025DD00240126002506FA03F222440AEB73
:104388008202D2ED007A05FA03F104EB41010AEB4F
:10439800810167EE877AD1ED006AB0EE676AA6EE12
:1043A800876A0135A842D6EE877A06F1020681EDC2
:1043B800006AC2ED007ADFD101346445DADB07F028
:1043C8000F023F1118F8022018F8077001339945B9
:1043D80042EA8707BAD1099D169B05FA09F543FAFF
:1043E80009F4C8460026012C69DD169BA3F10109D2
:1043F800059BB9FA89F94FEA5919002B40F0538106
:10440800BAF1000F07D04B4604FA08F245FA08F152
:104418005046FFF78BFA189B0397CDE901A3DDF807
:104428001CA0089B0094B0EE480A069A59465046CC
:10443800FFF74CFBDAF804300746002B40F04D81BB
:1044480038460BB0BDEC028BBDE8F08F069A42FAF5
:1044580003F0012202FA03FCBCF1000F40FA02F05B
:10446800ADDD0028C8BF0024A9DD0126002506FA15
:1044780003F222440BEB8202D2ED007A05FA03F133
:1044880004EB41010BEB810167EE877AD1ED006AFD
:10449800B0EE676AA6EE876A0135A842D6EE877A3B
:1044A80006F1020681ED006AC2ED007ADFD101341F
:1044B800A445DAD1BAF1000F7FF45BAF7FE7189B10
:1044C800DDF81C900397CDE901A30094089B069A98
:1044D800B0EE480A59464846FFF7F8FAD9F80430CA
:1044E8000746002BACD0DEB39FED687ACDF8148078
:1044F8004FF0000A64106D0027FA04F3002C47EA15
:1045080003074FEA650E25DDBEF1000F22DD4FEAF5
:10451800840808EB0B095B464FEAC40C08EB03015F
:104528001A460020D1ED007AD2ED006A67EE877A4C
:104538000130B0EE676AA6EE876A8645D6EE877ABE
:1045480082ED006AC1ED007A62446144EAD1043325
:104558009945E3D10AF1010AB245CBD1DDF81480BF
:10456800B8F1000F41D0DFF82CA19FED487ADDF8B3
:1045780018E0059400254FF0010909FA05FC4EFAE8
:1045880005F6BCF1000F1AF807704FEA660628DD39
:10459800002EC8BF002124DD0124002004FA05F301
:1045A8000B440BEB8303D3ED007A00FA05F201EB21
:1045B80042020BEB820267EE877AD2ED006AB0EE18
:1045C800676AA6EE876A01308642D6EE877A04F1DA
:1045D800020482ED006AC3ED007ADFD101318C4517
:1045E800DAD101354545C8D1059C199B04FA08F470
:1045F800DBB1069D2846FBF7CFFF41EC100B10F00E
:10460800ABFF51EC100BFCF709FB002D07EE100A6D
:104618000BDD199A5B460BEB8501F3EC017A67EE2B
:10462800877A8B42E2EC017AF7D10123A340013B60
:104638001F4038460BB0BDEC028BBDE8F08F1A9ACC
:1046480005F00103002A00F00881BAF1000F00F01C
:1046580004818BB3012800F31481189B0397CDE9DB
:1046680001A3169B0093089B2246B0EE480A079CBC
:1046780059462046FFF72AFA63680746002B3FF49D
:10468800DFAE169C4FF00008AFE700BFF304353FDC
:10469800C8690108B86901084FF00008169CDDF8E0
:1046A80068A04646C1464B4604FA08F245FA08F1A6
:1046B8005846FFF73BF9A3E6B9F1000F4ED10128A0
:1046C80040F3D48010465146A200FBF779FDC84656
:1046D8004E46DDF868A0169C87E64B4604FA08F2B9
:1046E80045FA08F15846FFF789F9FCE607990B6A7D
:1046F800C869072B0DDC4B681BB14FF07E53CBF814
:104708000030199BF3B11A46DBF80030136001271B
:1047180096E6059BEBB1DBED007AF5EEC07AF1EE9B
:1047280010FA4CBF01240024214605F00BFD07991F
:104738000B6A4A68083B0B62002AE2D0002CDCD0E6
:10474800584BDCE7012738460BB0BDEC028BBDE8BF
:10475800F08F114605F0BEFB0446E8E710465146C7
:10476800A200FBF72DFDDDF868A0059B9FED4E7AB2
:10477800169C00266D10002B40D1BAF1000F2AD0EC
:10478800002C28DD002D26DD4FEA840CE000514680
:104798004FF000080CEB01020B464FF0000ED2ED73
:1047A800007AD3ED006A67EE877A0EF1010EB0EE5B
:1047B800676AA6EE876AAE45D6EE877A83ED006A09
:1047C800C2ED007A03440244E9D108F10108A0458A
:1047D80001F10401DEDB07FA04F315F0010806F124
:1047E800010647EA03074FEA440433D116EB090FE1
:1047F8007FF5F9AD059B6D10002BBED0002CEADDCE
:10480800002DE8DD4FEA840C0BEB0C085B46E0005A
:104818000CEB03011A464FF0000ED1ED007AD2EDF1
:10482800006A67EE877A0EF1010EB0EE676AA6EEAF
:10483800876AAE45D6EE877A82ED006AC1ED007AC6
:1048480002440144E9D104339845E1D1BAF1000F9B
:104858009DD1C0E74FF00008C5E513B9B9F1000FC5
:1048680083D14FF000084646169CBCE5189B039779
:10487800CDE901A3169B0093B0EE480A089B069A5F
:10488800F5E6069B1A989A005146FBF799FC059B9A
:10489800002B7FF401AF9846169CDDF868A01E46F1
:1048A8009946B0E5000080BFF304353F2DE9F04F8D
:1048B8002DED048B93B09246012B02680793834633
:1048C80009910892D0F81C90219D00F0AE81DBE997
:1048D80002871846D8F83830DBF8102033F917105B
:1048E800DBF824300B93239B022801EBC3014FEA2A
:1048F800610300F097814400043B013C2098209E0E
:10490800411AA1F11F0003FB046393FBF4F38342F4
:10491800A8BFA1F12003032B1BDC089E002E40F04A
:10492800BF81484605F040F80446209B102B40F311
:104938005581DBF82030102B40F35081089B002B69
:1049480001F05E82022231464846089605F04CFB8B
:1049580046E1402BA8BF402303F00700C749DB10FE
:1049680031F91040C3F10E0344FA03F35C1C24F040
:10497800010397420A93D0DA089B002B40F0B884D1
:10498800484605F011F8079B022B064601F384817F
:104998000A9C4846611C05F0AFF987034846B7FBF7
:1049A800F4F40A9405F000F8209B801B1B1A0B9363
:1049B800002C00F023810A9BB3F5804F00F0F584AA
:1049C800C3F58042194612B24FF4805302FB0232FB
:1049D8000EB252134FF480470FFA82FC06FB0636DC
:1049E8004FF68E5176131CFB017442F2550E33B20A
:1049F8000EEBE43413FB0171A4B20EEBE1310CFBB6
:104A080004F489B23C4403FB01F1E4133944A4F5EE
:104A1800EF54C913033C1CFB0474A1F5EF51C2F514
:104A2800004202EBE432033912B213FB0171C6F5FE
:104A3800004303EBE133B2FA82F619B2A6F111048E
:104A4800B1FA81F302FA04F424B24FF2DB58A3F16D
:104A5800110C14FB087E0C9101FA0CFC41F6FC6168
:104A680001EBEE3E0FFA8CFC1FFA8EFE9E1B1CFB20
:104A7800087804FB0EF4F60201EBE8313C4406EB3F
:104A8800E43489B2079E9DED0C7A07EE902A0CFB60
:104A980001F13944731EF8EEE78AA4EBE131DFED4A
:104AA800787ADBF82020DB01B8EEC78A13FB0171A6
:104AB800022E4FEAE13168EEA78A28EE278A01F034
:104AC800A380002308930B9C611A01EBD171491054
:104AD800A142A8BF2146161A269A0D9621EAE1732B
:104AE800E71A42FA05F4A5F10102B2FA82F2520974
:104AF800BB420C930B97CBF820600E92C0F26C84EB
:104B0800269A0592259A0492249A0392239A02924D
:104B1800229A0999CDE90052B7EE000A079A584639
:104B28009846FFF7E3FB0D90DBF820004346301A68
:104B3800181A182804DD0A9B13B1183807440B9774
:104B4800DBF81870DBF80030079A0A93002FB2FBE5
:104B5800F5F640F331864B499FED4B7ACDF83CB0E2
:104B6800219500200C9693461D46002D40F0868323
:104B780004F00F032411CB5C0C5D0130874243EA3B
:104B88008404F2D10C9E219DDDF83CB00C973D4188
:104B9800BE400027012D40F389870A9B002B41F076
:104BA8008081239B03940022029301920B9B009522
:104BB800B0EE680A079A51465846FEF787FFDBF8B9
:104BC80004300446002B41F042810D9B23431C46D0
:104BD800204613B0BDEC048BBDE8F08F002308938A
:104BE800DBF834304846002B00F0AF8004F0DCFEE0
:104BF800001B209B1B1A0B9300230893079BDBF8D1
:104C08002020022B00F0AD800123269C1F49DFEDF8
:104C1800228A9FED228AAB40013B1C400023269448
:104C28000A9350E70446103B68E61AF1000418BFDF
:104C3800012416460D46002A40F0F282016A13E06C
:104C48000121484605F046F9DBF82010DBF804306E
:104C58000839CBF8201013B160B10D4B2B60B4426A
:104C6800554640F3F38401260729E9DCDBF80430D4
:104C7800002BF4D04FF07E53F0E700BFD86901084D
:104C880000000038C8690108F304353F00C0FFFF81
:104C9800000080BF7D1D90260000000000FE7F3FC1
:104CA800DBF82C3000930122079B0998514608F045
:104CB800E3FD0646484604F077FEB6F5005F044675
:104CC80004DDDBF83430002B01F0A18000260B99BD
:104CD8001FED108AD8F8083001EB8702D2ED008A60
:104CE800F0EE487A1F44E8EEA87A01EB870393EDCB
:104CF800009AE9EE097A17EE900AFBF75FFC41EC9F
:104D0800100B10F029FC51EC100BFBF787FF07EE96
:104D1800900A079937EE888A002989EE086AC8EE52
:104D2800886A7FF702AE09985246034600EB810174
:104D3800F2EC017A93ED007A66EE277AE6EE877A4E
:104D4800E3EC017A9942F3D1EFE504F02DFE209BC4
:104D5800DBF82020001B1B1A0B93079B022B7FF408
:104D680053AF101A099E5FED348A1FED348ACBF8D1
:104D78002000CDF838A0B7EE009AFFEE009ADBF8D5
:104D88000030DBF818200A93CDE90C23A5F10103C4
:104D9800B3FA83F35B09002A4FF002071093B7FBBD
:104DA800F5F740F3A285259B33B1229B23B103CBB2
:104DB800259B229318605960CD49CDF83CB0CDF8B9
:104DC80044A089469FEDCB7ADDF830A0269A229937
:104DD800DDF828B00D9700232195BBF1000F40F0B6
:104DE8006C84A9B3022040FA03F5012000FA03F805
:104DF800B8F1000F45FA00F52ADD002D28DD00275F
:104E08004FF0010E4FF0000C0EFA03F0384401EB9E
:104E18008000D0ED007A0CFA03F407EB440401EBB0
:104E2800840467EE877AD4ED006AB0EE676AA6EE6E
:104E3800876A0CF1010CAC45D6EE877A0EF1020EAA
:104E480084ED006AC0ED007ADED101374745D7DB33
:104E580002F00F00121119F8000019F802200133AE
:104E68009A4540EA8202B8D10C9B0D9F219DDDF83E
:104E78003CB0DDF844A026921D419F404FF0000849
:104E8800012D40F350850A9B002B40F09287229B0E
:104E980043B10C99109B229805FA01F247FA01F1E7
:104EA800FEF744FDDBF800300D93DBE90203D0E99F
:104EB80018298168DBF814000A90DBF81C000F90B1
:104EC800239800FB01110B440B9932F913304C1E47
:104ED80019F8031001F1010C09EB03004FEA6C0CFF
:104EE80010F80C209442DCBF61464FF0000C0CEB2C
:104EF80001020132521010F802E07445DCBF11467D
:104F0800624602EB010C0CF1010C4FEA6C0C10F834
:104F18000CE07445DCBF614694460CEB010201329B
:104F2800521010F802E07445DCBF1146624601EBEE
:104F3800020C0CF1010C4FEA6C0C10F80CE07445F3
:104F4800DCBF6146944601EB0C020132521010F8A6
:104F580002E07445DCBF1146624610F801C0ACEBB4
:104F6800040C002A00F0E78310F802E0A4EB0E041A
:104F78006445964602DDA1B18E460A4610F80E0039
:104F8800DBF820100130091A0029CBF8201080F234
:104F9800758313444B440144013ACBF8201040F088
:104FA8006483DBF80440002C00F0CA830123AB4083
:104FB800269A013B12EA030400F03B874E484F490A
:104FC800DBF8282001FB020201FB020122980028DD
:104FD80001F01A80DFED4A6ADFED4A7A90ED007A37
:104FE80012F4004F0CBFB0EE676AB0EE666A37EE97
:104FF800067A11F4004F86ED007A90ED017ACBF82D
:10500800281018BFF0EE667A77EE277AC6ED017A97
:10501800DBF82C20B7EE000A0221304608F0F4FB3A
:10502800DBF804300A93002B00F08A83012D00F38B
:10503800CB86B8F1000F3BD09FED2E7ACDF82CA08F
:105048004FF0000B6D107F0024FA05F3002D44EAA1
:1050580003044FEA670E25DDBEF1000F22DD4FEA9B
:10506800850909EB060A33464FEAC50C09EB03012B
:105078001A460020D1ED007AD2ED006A67EE877AF1
:105088000130B0EE676AA6EE876A8645D6EE877A63
:1050980082ED006AC1ED007A62446144EAD10433CA
:1050A8009A45E3D10BF1010BC345CBD1DDF82CA018
:1050B8000C9B002B57D0DFF850909FED0E7ACDF85F
:1050C8002CA000204FF0010B9A4602230BFA00F89F
:1050D80043FA00FCB8F1000F19F804404FEA6C0CD1
:1050E8003CDDBCF1000FC8BF002137DD10E000BF78
:1050F800C8690108F304353F5FF36E3C0D6619007B
:105108000000803B000080BBB8690108F304B53F8C
:105118004FF0010E00270EFA00F30B4406EB830351
:10512800D3ED007A07FA00F201EB420206EB8202A5
:1051380067EE877AD2ED006AB0EE676AA6EE876AF4
:105148000137BC45D6EE877A0EF1020E82ED006A71
:10515800C3ED007ADFD101318845D9D101305045FE
:10516800B3D1DDF82CA00C9B249A05FA03F36AB19D
:1051780096ED007A5FED1B6A27EE267A82ED007ABB
:10518800D6ED017A67EEA67AC2ED017AD6ED017AFC
:105198000E9A67EEA99A0125C2ED009AD6ED007A1B
:1051A8009D4027EE899A0A9B82ED019A013D2C4089
:1051B800002B3FF40DAD099BD3ED017A93ED007AF6
:1051C80027EE087A27EE888A83ED007A83ED018A34
:1051D8009AED017ADAED007A68EEA77A67EE288A06
:1051E800CAED007ACAED018AD3ED006A76EEE77A55
:1051F800C3ED007ADAED007A9AED017A77EEA67AB5
:10520800CAED007AD3ED016A36EEC77A83ED017AEA
:10521800DAED017A77EEA67ACAED017A00F0EABCF7
:105228000026016A0AE0DBF8043013B14FF07E5320
:105238002B60B442554640F30982012607294FF0F6
:1052480001024846EFDD95ED008AB5EEC08AF1EE21
:1052580010FA4CBF0121002104F074FFDBF8201084
:10526800DBF804300839CBF82010002BE1D0B5EE7C
:10527800C08AF1EE10FAD9D5D24BD9E7012303FA47
:1052880000F94BFA00F8B9F1000F48FA03F87FF774
:105298006FACB8F1000FC8BF00267FF769AC4FF0BC
:1052A800010E4FF0000C0EFA00F333440AEB8303AF
:1052B800D3ED007A0CFA00F206EB42020AEB820206
:1052C80067EE877AD2ED006AB0EE676AA6EE876A63
:1052D8000CF1010CE045D6EE877A0EF1020E82ED54
:1052E800006AC3ED007ADED10136B145D7D13FE47B
:1052F800DBF82C3000930122079B0998514608F0EF
:10530800BBFA0C90484604F04FFB0A9BDBF83020B0
:105318000D9019460C9B03FB01F6002A40F03582DC
:1053280006F50056B613079B022B40F31C82641047
:10533800621C02EB4202B44204EB0203C0F2A584F1
:1053480006EB4601CA1C484604F0E8FDB6030A9B72
:10535800B6FBF3F30A93002B00F0CE840999079863
:105368009FED997A0B46524601EB8001D2ED007A07
:10537800D3ED006A67EE877AB0EE676AA6EE876AB1
:10538800E6EEC77AA3EC016A9942E2EC017AEDD124
:10539800484604F009FB0D9BC01A209B1B1A0B936F
:1053A8000A9BB3F5804F7FF40BAB0123AB40079901
:1053B800269A013BAB40022903EA0203DBF82020CE
:1053C80000F05285269300230A990893DFED7F8A1F
:1053D8009FED7F8AFFF777BBDBF81880DBF800309A
:1053E800079A1093B8F1000FB2FBF5F740F330823B
:1053F80078499FED757ACDF844B0219500200F9734
:1054080093461D46002D40F0E98004F00F03241157
:10541800CB5C0C5D0130804543EA8404F2D10F9FD8
:10542800219DDDF844B0CDF83C8007FA08F745FA2D
:1054380008F64FF00008012E40F38C82109B002BD9
:1054480040F02485239A0394002302920193009646
:105458000B9B079AB0EE680A51465846FEF736FB92
:10546800DBF804300446002B40F0E7840D9BDBF8A2
:105478002000181A0B9B181A182807DD0A9BB3F589
:10548800804F03D00C9B183803440C93269B05933C
:10549800259B0493249B0393239B0293229B079AA7
:1054A8000999CDE90053B7EE000A0C9B5846FEF760
:1054B8001DFFDBF804300A9304430A9B002B3FF4DA
:1054C80087AB0799002978EE085A40F30A859FEDC3
:1054D800407A099AF0EE476A53460AEB8101F3ECE9
:1054E800017AB2EC016A9942A7EEA77AE7EE866ADA
:1054F800F5D166EEA56AA8EE087ADFED377A37EEC1
:10550800269A37EE667AB4EEE79AF1EE10FA00F1D1
:105518006B83B4EEE77AF1EE10FA00F1658317EECB
:10552800100AFBF74BF841EC100B10F015F851EC92
:10553800100BFBF773FB07EE900AF7EE009A19EED3
:10554800100AC9EEA78AFBF739F841EC100B10F0E6
:1055580003F851EC100BFBF761FB079A07EE900A72
:10556800002A89EEA76A7FF733AB099B9100581888
:105578005246D2ED007AD3ED006AB0EE677A96EE25
:10558800887AE6EE887A27EE287A67EE867AA3ECA0
:10559800017A9842E2EC017AEBD1089B002B3FF4A8
:1055A80017AB53465A18D3ED007AF1EE677AE3EC5D
:1055B800017A9A42F7D1204613B0BDEC048BBDE8BE
:1055C800F08F00BF000080BFF304353F00FE7F3F2F
:1055D80000000000C869010852491D3A012303FA76
:1055E80000F94BFA00FEB9F1000F4EFA03FE7FF7FF
:1055F8000CAFBEF1000FC8BF00267FF706AF4FF013
:10560800010C00270CFA00F333440AEB8303D3EDB3
:10561800007A07FA00F206EB42020AEB820267EE12
:10562800877AD2ED006AB0EE676AA6EE876A01371C
:10563800BE45D6EE877A0CF1020C82ED006AC3ED06
:10564800007ADFD10136B145D9D1DEE6249B002BA3
:1056580000F0A7831A46099B01241B6813602046A3
:1056680013B0BDEC048BBDE8F08F13F8010D0130C9
:10567800091A0029CBF82010FFF68DAC072A06DDA1
:1056880002F00703D2100833013A03FA02F20D9B25
:10569800002B00F0AC84DBF82C10DBF804000F9B27
:1056A800CDE90201CDE90053B7EE000A0A9B0221B9
:1056B800304607F063FE0446B2E4022040FA03F5E0
:1056C800012000FA03F8B8F1000F45FA00F57FF75A
:1056D800BFAB002DC8BF00277FF7BAAB4FF0010E54
:1056E8004FF0000C0EFA03F0384406EB8000D0EDC2
:1056F800007A0CFA03F407EB440406EB840467EE23
:10570800877AD4ED006AB0EE676AA6EE876A0CF174
:10571800010C6545D6EE877A0EF1020E84ED006A1B
:10572800C0ED007ADED10137B845D7D100297FF422
:1057380066ABFFF78DBB0B9A62457FF732AC1AE474
:10574800D6ED017A0E9B67EEA99A2046C3ED009A22
:10575800D6ED007A27EE899A83ED019A13B0BDEC55
:10576800048BBDE8F08F0A9C3146621C484604F061
:1057780097FCB603B6FBF4F30A93002B00F0BC8247
:10578800079B002B3FF7EAAD02E6B3F5005FCCBFFD
:1057980047F6FF73C24B0A9993FBF1F31E44B61305
:1057A8000A9B26EAE6769E42A8BF03F1FF36002A46
:1057B800FFF6B9AD0136B6E516F001030C9340F0DB
:1057C8005184002F00F05D84C7F10009CDF83CB08A
:1057D8009FEDB57ADDF828B01F460DE004FA05F311
:1057E8001C4316F0010307F101074FEA450540F095
:1057F800A3804F4500F0A4807610BBF1000FEDD0D8
:10580800002DEBDD002EE9DD4FEA850E0EEB0A08D0
:1058180053464FEAC50C0EEB03011A460020D1EDA2
:10582800007AD2ED006A67EE877A0130B0EE676AD7
:10583800A6EE876AB042D6EE877A82ED006AC1ED9D
:10584800007A62446144EAD104339845E3D1C5E75C
:1058580017F001030F9340F00E84B8F1000F00F029
:105868001384C8F10002CDF844B09FED8F7ADDF8BB
:10587800409021952E46984693460BE004FA06F38D
:105888001C4317F0010308F101084FEA46064FD1FF
:10589800D8455AD07F10B9F1000FEFD0002EEDDDBA
:1058A800002FEBDD4FEA860C0CEB0A0E5346F50091
:1058B8000CEB03011A460020D1ED007AD2ED006A04
:1058C80067EE877A0130B0EE676AA6EE876AB8425B
:1058D800D6EE877A82ED006AC1ED007A2A4429441F
:1058E800EAD104339E45E3D1C8E7259A07F00103BE
:1058F800002A00F09C83229A002A00F09883002B4B
:1059080040F070820C9B002B40F0F182012D40F397
:10591800A483134603CB259B229318605960DDF8B6
:105928003080FFF7B0BADBF800300A93FFF7BCBA53
:10593800DDF844B0219D7EE5DDF83CB0FFF72AB9DB
:10594800DDF83CB00C93FFF725B9DDF844B0219D94
:105958000F9370E5239A0394002302920193009613
:105968000B9B079AB0EE680A51465846FEF7AEF808
:10597800DBF804300446002B3FF478ADB8F1000F93
:105988003CD000239FED487ACDF838B09946219550
:1059980076107F0024FA06F3002E44EA03044FEA47
:1059A800670C24DDBCF1000F21DD4FEA860E0EEBFB
:1059B8000A0B5346F5000EEB03011A460020D1ED01
:1059C800007AD2ED006A67EE877A0130B0EE676A36
:1059D800A6EE876A8445D6EE877A82ED006AC1ED25
:1059E800007A2A442944EAD104339B45E3D109F1DA
:1059F8000109C845CCD1DDF838B0219D0F9B002B9B
:105A080046D0CDF840B0DFF89C909FED277ADDF8BE
:105A18001CB00E9600279846012303FA07FE4BFA9E
:105A280007F6BEF1000F19F8044046FA03F629DD1F
:105A3800002EC8BF002125DD4FF0010C00200CFA14
:105A480007F30B440AEB8303D3ED007A00FA07F25D
:105A580001EB42020AEB820267EE877AD2ED006A16
:105A6800B0EE676AA6EE876A01308642D6EE877A7C
:105A78000CF1020C82ED006AC3ED007ADFD101312E
:105A88008E45D9D10137B845C6D10E9EDDF840B054
:105A98000F9B06FA03F301269E40013E3440E5E4DD
:105AA8000180FFFFB8690108F304353F239B039485
:105AB8000022029301920B9B0095B0EE680A079AA8
:105AC80051465846FEF702F8DBF804300A930446BC
